:020000040010EA
:10000000E85F0020590110003158100033581000EB
:100010003558100037581000395810000000000003
:100020000000000000000000000000003B5810002D
:100030003D581000000000003F58100041581000CB
:1000400043581000E93F1000435810004358100077
:10005000210710007D131000435810004358100072
:1000600043581000435810004358100043581000E4
:1000700043581000435810004358100043581000D4
:10008000612410006724100069231000651C100013
:1000900043581000435810004358100043581000B4
:1000A000435810004358100043581000DD11100051
:1000B00035171000F1161000435810004358100077
:1000C0004358100043581000435810004358100084
:1000D0004358100043581000435810004358100074
:1000E0004358100043581000435810004358100064
:1000F0001DF810001DF810001DF810001DF810006C
:100100001DF810001DF81000C99512001DF8100010
:100110001DF81000435810004358100043581000B9
:100120004358100043581000435810004358100023
:100130004358100043581000435810004358100013
:100140004358100043581000435810004358100003
:10015000435810004358100068466FF382008546EC
:10016000014880470148004715591000715610009A
:1001700070B5856806460C46284636492FF082FB46
:10018000F368F8B9344D13B9EA6C34492AE06A6C63
:1001900022B9334920462FF07FFB0FE018462EF09E
:1001A00047FD00280CDBEB6C834209DD6B6C1022F1
:1001B00003EB00132B4920462FF044FB002070BDB9
:1001C0002949E7E70BB12949E4E7284628492FF0F8
:1001D00059FB80B90246204B1968814203F10403A0
:1001E00004DC244920462FF02DFBE7E71D68013091
:1001F0006D682A43F1E728461F492FF043FB18B9E1
:10020000154B1A68013AC0E728462FF04DFB042829
:100210001DD90422284618492EF024FDB8B9174AE2
:10022000281D033515F9013F73B92EF001FD002893
:100230000DDB094B1A68013A824208DD03EB8000AE
:1002400083680F491A68CDE79B5C5B07EAD40D49C8
:10025000A0E700BF961D1300580400208C1D13005A
:10026000911D13009B1D1300A21D1300AE1D130052
:10027000B71D1300BD1D1300F31D1300E1981300FB
:10028000C31D1300C81D130070B1036863B18368F8
:1002900053B1064A1368102B06D002EB83010133D9
:1002A0004860136000207047012070475804002008
:1002B00038B50B4C002520464022294640F8045B07
:1002C0002EF0EEFC2046C4E91155E56400F0D6F8A6
:1002D000044610B90348FFF7D7FF204638BD00BFDA
:1002E00058040020080000202DE9F043044685B0A2
:1002F00008B9012454E000F009F9204633492FF0F1
:10030000E7FA044600900028F3D02FF0CDFA012838
:10031000EFD12378303B4E2BEBD800202B492FF028
:10032000D7FA01900028E4D0002028492FF0D0FA15
:1003300002900028DDD0002024492FF0C9FA0026C1
:10034000234DDDF80490D5F800800390B04502DC21
:10035000009A20492CE055F8047F484639682FF070
:1003600091FA044600282ED16846BB681A4998477E
:10037000D0B919482FF098FA122817D8164B009ABE
:10038000164917482FF05EFA15482FF08DFA0146EE
:10039000134800F0B3F804460028AAD100F0B6F8DC
:1003A000204605B0BDE8F0830328F9D0009A0D4936
:1003B0000B482FF047FA0A482FF076FA0146084812
:1003C00000F09CF895E70136C0E700BFD31D13008D
:1003D00058040020EA1D1300A8040020D51D1300B6
:1003E000BD040020DB1D130070B5074C0025264618
:1003F0003368AB4201DC002070BD63681B6903B148
:10040000984701350434F3E758040020152110B54E
:1004100004462FF051FA1428014606DC204600F06D
:100420006DF8003818BF012010BD0120FCE7000066
:10043000F8B5084C0646002527463B68AB4201DC70
:100440000020F8BD6368DB680BB130469847013582
:100450000434F2E75804002010B5047D86B001464C
:10046000224668462EF00EFC06AB1C44002368466C
:1004700004F8183CFFF738FF06B010BD30B5D3B014
:100480006C461B4B03F11005224618685968083367
:1004900003C2AB421446F7D1164B08AC03F110056A
:1004A000224618685968083303C2AB421446F7D194
:1004B0006946002004F0D4FB0CA803F0ADFD08A9A8
:1004C00080220CA803F0B4FD6A4604AB01210CA8FD
:1004D00004F042F90CA803F0A4FD10210DEB01007B
:1004E00002F054FB044802F07BF9002053B030BD09
:1004F0001F1E13000E1E13005904100008B5C9B2C8
:1005000002F0AEF9003818BF012008BD00F0BCB8F9
:100510004FF0FF3070470020704708B50B680BB1F3
:1005200048689847002008BD08B50C4A1378012B8D
:1005300004D067210A4A0B4800F04CFBB2F8CC30DB
:10054000172B02D96B21084AF5E7013322F8330053
:1005500002EBC3004160A2F8CC3008BDD4040020F7
:100560002F1E1300601E1300791E130008B5124BD6
:100570001978F9B91846D4222EF092FB024600F100
:10058000080142F8C81FC0F8D420021DC0F8D820C6
:100590004FF00112C0F8DC200122084902704FF62A
:1005A000FF70FFF7C1FFBDE8084040F60170044945
:1005B000FFF7BABF08BD00BFD40400201705100024
:1005C0001B05100010B5094C2378012B0CD1042019
:1005D00004F1D00129F0D4FA20B17921044A054868
:1005E00000F0F8FA0223237010BD00BFD4040020ED
:1005F000B91E1300601E130038B5094B05461B7861
:100600000C4663B104220823114640F6017029F01C
:10061000EBF9C0E90054BDE8384029F0FFB938BD16
:10062000D404002008B520B94E210B4A0B4800F035
:10063000D1FA0B4A1368834202D15B68136008BD8C
:10064000002BFCD01A465B688342F9D1596851608F
:1006500000225A60F3E700BF0F1F1300F11E1300C2
:10066000B405002038B50546064B1C6804B938BDF2
:10067000A389AB4203D123680BB1A0689847646893
:10068000F4E700BFB4050020014B1868704700BFB5
:10069000B8050020034B5868C0F30800003818BFA5
:1006A0000120704700ED00E008B50246FFF7F2FFB9
:1006B00020B1A321064A074800F08CFA06490868D1
:1006C0000B681B1A934200D308BD30BFF8E700BF88
:1006D0001E1F1300391F1300B80500200C4B01200A
:1006E0005B6803F03F035A1C0A4B1B68B3FBF2F331
:1006F0004FF4FA62B3FBF2F3074A43F0C0531360BE
:100700001022064BC3F880211A6004F031BF00BFED
:1007100000010040000000200004004000E100E073
:10072000024A136801331360704700BFB805002008
:1007300037B50D4CE56AA847C2070190FBD4019B71
:10074000DB060BD4636A984758B1019B13F0200F66
:1007500014BF6FF00800002003B030BD6FF0070039
:10076000FAE76FF00600F7E7BC1F130038B5184C26
:10077000237813F004032AD1164DC4E90133C4E9E8
:10078000033363611448AB68984720B16021134A72
:10079000134800F01FFA02202B69984710B163211B
:1007A0000E4AF5E72178022001F00301AD6AA8475F
:1007B000014610B16621094AEAE70320A84710B1B3
:1007C0006921064AE4E7237843F00403237038BD27
:1007D0001C000020BC1F1300250810004D1F130033
:1007E000651F130010B50B4C00202369984720B1FA
:1007F0007321094A094800F0EDF9E368984710B100
:100800007621054AF6E7064B1A7860F382021A70E1
:1008100010BD00BFBC1F13004D1F1300651F130048
:100820001C000020030670B5054601D5FFF7DAFF6E
:10083000064C63694BB1064B5B6A98476369C4E930
:100840000305201DBDE87040184770BD1C00002046
:10085000BC1F130037B5124D0446FFF787FFEB6A44
:100860009847C30718D40F4B012C1A780FD0022CCD
:100870000FD0012161F3010202201A701978AB6ACE
:1008800001F00301019303B0BDE830401847022195
:10089000F0E742F00302EFE76FF0010003B030BD74
:1008A000BC1F13001C0000202DE9F743DFF84C802B
:1008B00004460D4616461F46DDF82890FFF756FF02
:1008C000D8F82C30984710F0010012D10C49D8F814
:1008D0001830C8600193C1E90145C1F814903B4646
:1008E000324629462046DDF804C003B0BDE8F04397
:1008F00060476FF0010003B0BDE8F083BC1F130038
:100900001C0000202DE9F74306460F469046994605
:10091000FFF7C0FE054638B19D210C4A0C4800F097
:1009200059F902340FD130BF4B4642463946304662
:100930000095FFF7B9FF04460028F2D103B0BDE8E7
:10094000F043FFF7F5BE03B0BDE8F0831E1F1300B0
:10095000651F13002DE9F743DFF84C8004460D4670
:1009600016461F46DDF82890FFF700FFD8F82C3018
:10097000984710F0010012D10C49D8F81430C86023
:100980000193C1E90145C1F814903B46324629461E
:100990002046DDF804C003B0BDE8F04360476FF0C7
:1009A000010003B0BDE8F083BC1F13001C00002051
:1009B0002DE9F74306460F4690469946FFF76AFE33
:1009C000054638B1C7210C4A0C4800F003F902343F
:1009D0000FD130BF4B464246394630460095FFF7AF
:1009E000B9FF04460028F2D103B0BDE8F043FFF799
:1009F0009FBE03B0BDE8F0831E1F1300651F1300E8
:100A000070B5860704460FD5124A137D5D070BD5D6
:100A100055686FF38203137535B10F4BD6685B6A67
:100A2000984701463046A847E00712D5094A137D8A
:100A300099070ED514686FF3410313754CB1064B3B
:100A400095681B6A9847234601462846BDE87040D2
:100A5000184770BD34000020F01F130038B5154C46
:100A6000237D13F0010223D1134D23F007032375D7
:100A70001248AB68C4E90022C4E90222984720B1B9
:100A80007D210F4A0F4800F0A5F802202B699847F6
:100A900010B180210A4AF5E70120AB6A2169984725
:100AA00010B18321064AEDE7237D43F0010323754E
:100AB00038BD00BF34000020F01F1300010A1000F1
:100AC0004D1F13007D1F13000B4A10B5137DD9076E
:100AD00011D50A4C6FF300031375E368984720B1F2
:100AE0009421074A074800F075F82369984710B128
:100AF0009721034AF6E710BD34000020F01F1300D1
:100B00004D1F13007D1F1300074B07B5DB6A984785
:100B10000190019B9B074EBF0120019800F001004E
:100B200003B05DF804FB00BFF01F130010B50446CE
:100B3000FFF794FFFFF7E8FF40B9064B214601207D
:100B40009B6A984708B9044B1C6110BD6FF0010007
:100B5000FBE700BFF01F130034000020F0B585B0A4
:100B600005460F46FFF796FD20B1FB21134A1448B6
:100B700000F030F815B9FC21124AF8E717B9FD2149
:100B8000114AF4E7114EFFF769FF73690193394683
:100B90002846019B9847821C0446F8D050B90C4B5C
:100BA000F56A1A7D60F341021A75A8470390039B0A
:100BB000DB07FAD4204605B0F0BD00BF1E1F1300AE
:100BC0007D1F1300961F1300A31F1300F01F1300B7
:100BD0003400002008B50323114C124DA360A36814
:100BE00013F03C0F02BFA36843F00103A360286821
:100BF000112803D900231138DB6A9847A36813F042
:100C00003C0F02BFA36823F00103A36028684000E3
:100C10001128E4D900231138DB6A9847DFE700BFC9
:100C20000007004000000020800000F18040D0F864
:100C3000003713F03C0F02BFD0F8003743F0010338
:100C4000C0F800377047800000F18040D0F80037CE
:100C500013F03C0F02BFD0F8003723F00103C0F8B7
:100C600000377047064B82B01868002382B262F3E7
:100C70000F03000C60F31F43184602B0704700BF1B
:100C8000B81F130000207047014B5868704700BF21
:100C9000CC050020014B5868704700BFBC05002000
:100CA000002808DB0123420900F01F0003FA00F0CE
:100CB000014B43F82200704700E100E000280DDB03
:100CC0000122430900F01F0002FA00F0044A203319
:100CD00042F82300BFF34F8FBFF36F8F704700BF01
:100CE00000E100E0002809DB0122430900F01F00B9
:100CF00002FA00F0024A603342F82300704700BF56
:100D000000E100E0112803D900231138DB6A1847FD
:100D1000704700002DE9F843794D2E7AB40740F171
:100D2000E5800138032800F2E180DFE800F00219D5
:100D300053A46B68D80700F1DC80724B7248734C87
:100D40005A69D2060AD51A68090201F4FE4122F452
:100D5000FE42114319600020BDE8F8834460EFE7CC
:100D60006B68DB0700F1C5800139022900F2C480FD
:100D7000674B53F82170674B1C6820462CF05AFED5
:100D80008046384689462CF055FE0022624B2CF0F6
:100D9000CBFE02460B46404649462DF037F9002867
:100DA00040F0AA8007EB4707B4FBF7F4554A013C33
:100DB00055495648EC605369DF0609D5136846F07B
:100DC000040623F47F0343EA044414602E72C2E74E
:100DD0004860F0E74B4A1B201368092423F0020304
:100DE0001360FFF76BFF41F211124C4B1A6703229D
:100DF0005A611A61474B1E68494BB6FBF3F6052052
:100E0000FFF712FF3046FFF77DFF0520FFF71BFFBE
:100E10003046FFF777FF601E10F0FF04EFD104208B
:100E2000FFF711FF3046FFF76DFF0520FFF7FCFECF
:100E30003046FFF767FF43F210420420FFF7F4FE4D
:100E4000364B1B205A6143F211421A6140F20542AF
:100E50001A672C4A136843F002031360FFF742FF3E
:100E60001B20FFF71DFF2B68002B3FF474AF4FF4DE
:100E7000807098476FE76B68D9077FF56CAF1B20D0
:100E8000FFF71CFF6B6813F0020F1E4B25D00822E2
:100E90001D491E485A605A6952051CD50021214B34
:100EA0001B20C3E90011996019736B6861F300039B
:100EB0006B606B6861F3C3036B606B6861F3041371
:100EC0006B606B6861F345136B60FFF70BFF1B20D2
:100ED000FFF7E6FE3FE74860DDE71A6822F001020F
:100EE0001A600122104BC3F89420D7E74FF0FF306F
:100EF00032E76FF001002FE76FF003002CE700BF2F
:100F0000BC050020000B00400003004011E2B102CC
:100F1000AC1F13000000002000000A400007004042
:100F2000A0860100CC05002000600142024610B5F9
:100F300018B311B3154B187A800721D5586810F0F3
:100F4000010020D158605C6844F001045C605C687A
:100F500060F341045C605C6844F004045C600C4B2A
:100F6000C3E900109A600B4A136823F47F0323F04F
:100F7000010343F00103136010BD6FF00400FBE7B1
:100F80004FF0FF30F8E76FF00100F5E7BC050020F7
:100F9000CC050020000B0040024610B518B311B379
:100FA000154B187A800721D5586810F0010020D120
:100FB00058605C6844F001045C605C6860F3410464
:100FC0005C605C6860F382045C600C4BC3E90010F9
:100FD0009A600B4A136823F47F0323F0010343F064
:100FE0000103136010BD6FF00400FBE74FF0FF300A
:100FF000F8E76FF00100F5E7BC050020CC05002004
:10100000000B004070B50446002930D0002A2ED0D5
:1010100020F400407F282AD8194D287A400729D586
:10102000686810F0010028D168606E6846F001061B
:101030006E606E6846F002066E606E6846F00406EA
:101040006E60104EC6E900200F4A34737373136844
:10105000B160E96823F47F03640043EA0143E4B22A
:1010600023F0010344F001041360146170BD6FF0BC
:101070000400FBE74FF0FF30F8E76FF00100F5E701
:10108000BC050020CC050020000B004070B50546D3
:1010900000292DD062B320F400407F2828D8194CB5
:1010A000207A400727D5606810F0010026D16060E3
:1010B000666846F001066660666846F0020666608D
:1010C000666860F3820666600F4EC6E900200F4A2C
:1010D000357373731368B160E16823F47F0343EAE7
:1010E00001436D0023F00103EDB21360156170BD83
:1010F0006FF00400FBE74FF0FF30F8E76FF00100FE
:10110000F5E700BFBC050020CC050020000B004027
:10111000014610B520B1022812D06FF0030010BDB7
:101120001B20FFF7CBFD1B20FFF7DCFD124B1960E6
:10113000124B1A7A596022F002021A720020EEE76E
:101140000E4C217ACB0714D511F00201F6D11B20E9
:10115000FFF7C8FD1B20FFF7A3FD0A22064B1A600C
:101160000122074BC3F89420237A43F00203237231
:10117000E4E74FF0FF30D2E7000B0040BC05002051
:10118000006001423F22054B00205A611A6141F282
:1011900011121A67024B187218607047000700405E
:1011A000BC05002010B50B4A137A13F001030FD1D0
:1011B00043F2104408494C6143F211440C6140F27F
:1011C00005440C67C2E90133D36001231060137238
:1011D000002010BDBC0500200007004070B4634B28
:1011E00063495A6812F0020FC2F3400059D04A69AD
:1011F0005C68E60734D515060BD55A6842F0200224
:101200005A605C4AC2F89400C0201B6843B370BCAB
:10121000184754050CD5584906C98A4203D0002AFC
:1012200014BF022012205A686FF300025A60ECE7E4
:1012300056071DD5550615D54F4BD3E90012013978
:101240008A424C4902F101042ABFC1F88400C1F866
:101250008000C1F88C004649886899685C608854B1
:1012600070BC70479405FBD5424BC3F88000F7E78C
:10127000D007F5D4404AD2E90040A04204D2956894
:10128000461C5660285C886051688C42E8D1517BCE
:101290000120384A11B1C2F88000C4E7C2F89000BA
:1012A000DEE748695A68D207DAD5060609D5012172
:1012B0005A68802042F020025A602E4AC2F89410E8
:1012C000A3E710F008051FD05A6800F0040402F0EC
:1012D000040294424FF00101264A12D0C2F8801055
:1012E000002110F002001FBF5A68202042F00802BF
:1012F0005A60214A8C42516014BF042208221043D4
:1013000083E7C2F88410ABE710F4007420D01A4AC7
:10131000D2E90064B44213D2450709D40120154B29
:10132000C3F880008968936820185060195597E7C2
:10133000C00795D49368601C50601B5D8B608FE77D
:1013400001200C4AC2F884005A6865F300026DE778
:10135000420585D5084A5068126890420CBF0120AA
:1013600082205A6864F3000260E700BFBC050020D9
:10137000000B004000600142CC05002038B501257B
:10138000114A138801339BB21380104B1C6804B9B7
:1013900038BD236A93B194F829307BB9237F6BB1B0
:1013A000204600F083FB48B1D4E9083194F82820A6
:1013B00084F8295022B11846FFF71EF96468E6E761
:1013C00008469847FAE700BFDC050020E00500204A
:1013D000064B82B01868002382B262F30F03000C40
:1013E00060F31F43184602B0704700BFEC1F1300A4
:1013F000014B1868704700BF282013006FF00300EE
:1014000070470000014B5869704700BF1406002068
:10141000014B1869704700BF140600206FF00300ED
:101420007047000000280DDB0122430900F01F0077
:1014300002FA00F0044A203342F82300BFF34F8F32
:10144000BFF36F8F704700BF00E100E0002809DBA9
:101450000122430900F01F0002FA00F0024A603343
:1014600042F82300704700BF00E100E082B0019B1A
:101470006FF300030193019B6FF341030193019B01
:101480006FF3C3030193019B6FF3820301930198F0
:1014900002B07047114B82B0019A197961F30002D2
:1014A00001925A79019B62F341030193019B6FF30F
:1014B000C3030193019B6FF382030193019B6FF3BD
:1014C00004130193019B6FF345130193019B6FF389
:1014D00086130193019802B0704700BF04060020F4
:1014E00008B5B8B1B1B1104B9A79520715D55A79F0
:1014F000012A15D001225A710C4B19600021986005
:101500001C201961FFF7A2FF4FF080520846084BDC
:101510001A6008BD6FF00400FBE74FF0FF30F8E7FA
:101520006FF00100F5E700BF04060020140600205C
:1015300000E100E070B5264D0446AB790E469807F1
:1015400031D5E3B2182B0FD0192B13D0012B2DD18D
:10155000204B0022186804F035F814F4E06FEE60B8
:101560000ED06FF0080004E01D20FFF75BFF0020A5
:10157000287170BD1C20FFF755FF00206871F8E747
:1015800014F4405F15D114F4404F15D114F4403FCA
:1015900015D1620316D4230317D4AB79002043F08E
:1015A0000403AB71E5E74FF0FF30E2E76FF00300B3
:1015B000DFE76FF00900DCE76FF00A00D9E76FF0B2
:1015C0000B00D6E76FF00C00D3E76FF00D00D0E70B
:1015D0000406002000000020014608B520B10228C2
:1015E00018D06FF0030008BD1C20FFF71BFF1D2063
:1015F000FFF718FF1C20FFF729FF1D20FFF726FF2C
:101600000B4B19600B4B9A79998022F002029A7168
:101610000020E8E7074B9979CA0706D511F00200C8
:10162000F6D1032298809A71DDE74FF0FF30DAE7B8
:1016300000800142040600203F22054B0020DA60B2
:10164000DA611122DA66034B98711860704700BFA7
:10165000000700400406002010B50B4CA17911F0E2
:1016600001010FD11822206008482DF019FB43F228
:101670000F12074BDA6043F23E12DA610722DA6694
:101680000123A371002010BD0406002014060020D1
:101690000007004038B5D0B1C9B1114B9A79520753
:1016A00018D51C79CCB901220E4D1A71E8601D20A5
:1016B00069606C61FFF7CAFE4FF0005220460A4B8A
:1016C0001A606B69EA68D25C084B5A6038BD6FF0EB
:1016D0000400FBE74FF0FF30F8E76FF00100F5E79B
:1016E000040600201406002000E100E0000C004089
:1016F00010B50D490B79ABB10C4A536950680133F1
:10170000834253610AD100231D200B71FFF78AFE2B
:101710000B683BB1BDE8104001201847D268D25C8D
:10172000034B5A6010BD00BF0406002014060020C1
:10173000000C004070B50F494B79CBB10E4B1A69C4
:101740001868824214D20D48551C846898681D613F
:1017500084541A691B689A420AD100231C204B71D9
:10176000FFF760FE0B681BB1BDE870400220184710
:1017700070BD00BF0406002014060020000C0040CD
:10178000081A013810405208013290422CBF002044
:1017900001207047484010420CBF012000207047D4
:1017A00010B50B1A5408134001349C423CBF431A35
:1017B0001340FFF7E5FF08B1584210BD1846FCE79B
:1017C00008441040704788424FEA52028CBF431AC7
:1017D0000B1A0132934204D9884294BF00200120A1
:1017E000704788422CBF002001207047904288BF7C
:1017F000531C10B584BFB0FBF3F403FB14008A4202
:101800003EBF0132B1FBF2F302FB1311431A5842FF
:10181000584110BD036810B50446D3E9072090472E
:10182000012323770023A060C4E9053310BD88425B
:101830004FEA520310B503F101038CBF441A0C1A8E
:101840009C4201D2401A04E0884203D91144081A8C
:10185000C04310BD01321044F4E7002905DD121A1F
:10186000914208DD881A0138704705D04B429842F2
:101870003CBF01328018084470470000002301611A
:10188000013151B9012B0ED80B4B03600B4B436058
:101890000B4B83600B4BC360704701F00102134494
:1018A000DBB24908EDE7084B0360084B4360084B87
:1018B0008360084BEFE700BF9517100081171000F9
:1018C000A1171000C1171000ED171000C717100066
:1018D0002F1810005B181000F8B515468B680A69C0
:1018E0000446816828469847031E19DD4FF0000C16
:1018F0002268D9179269DFF84CE0A2FB030302FBD0
:101900000133A169104A114F521A86457CEB030638
:1019100007D3904273F100030BD20144A161A5608B
:10192000F8BD6669C01906F10106666163F100033E
:10193000EBE7636901336361044B0B440344A36128
:10194000EDE700BFFFC99A3B00CA9A3B003665C469
:1019500038B5037F044663B10568D5E90730984779
:10196000237F02462BB12046291DBDE83840FFF7F2
:10197000B3BF38BD70B50D4616461946044640B192
:10198000002340F8043BFFF779FF049B2562C4E97C
:10199000063670BD70B5044630B1D0E907309847BF
:1019A000064654F8045B05B970BD2B7F23B132465F
:1019B00021462846FFF790FF6D68F4E759B150B112
:1019C0000023C0E90233C0E90433836103770B6865
:1019D000016043600860704718B103680BB1FFF7FE
:1019E00019BF704710B5044638B103682BB1037FA7
:1019F0001BB1FFF7ADFF0023237710BD38B50D46AF
:101A0000044640B139B103680BB1FFF7A1FFD4E937
:101A1000050185E8030038BD38B50D46044630B1F0
:101A2000036823B1FFF7F6FE0023E560236138BDAC
:101A300038B50C46054668B103685BB1FFF7EAFEAE
:101A40004FF47A73B4FBF3F103FB1144E9600249EC
:101A50004C432C6138BD00BF40420F0038B50C46E6
:101A6000054668B103685BB1FFF7D4FE054BB4FBD4
:101A7000F3F103FB1144E9604FF47A714C432C619C
:101A800038BD00BF40420F0038B50D46044650B186
:101A9000036843B1FFF7BEFE034BB5FBF3F103FB55
:101AA0001155E160256138BD00CA9A3B10B5044666
:101AB00008B9002010BD03680BB1FFF749FF626948
:101AC000E3689A4207D8F4D1A0692369984234BFE9
:101AD00000200120EEE70120ECE7000010B50446ED
:101AE000B0B10368A3B1037F93B1FFF731FF63691E
:101AF000E268934204D813D1A069216988420FD3C8
:101B00009B1A2169A26963618A4202D3521AA261B7
:101B100010BD013B6361044B13445B1AA361F7E7FB
:101B200000236361FAE700BF00CA9A3B4FF0FF3021
:101B3000704738B5431E012B0D4614460BD8FEF7EF
:101B4000A9FD20B921462846FFF708F808B14FF053
:101B5000FF34204638BDFFF7E9FF0446F9E70000EF
:101B600000232DE9F041244C244D207888B0C0F5A5
:101B700096718DF80530ADF806300DF10602204B58
:101B800089B22844029504F067FBBDF8062023784B
:101B9000DFF8708013441A4FADF806300DF10503DD
:101BA00003AA0DF1060102A804F0A8FB9DF8053078
:101BB00006460B2B03D1414603A804F04BFE3B889D
:101BC0003EB9002B0CBF00221222BDF80610914234
:101BD000E4DC0022227023B1BDF8061023788B428A
:101BE00002D308B0BDE8F081029A501C0290581C44
:101BF00020701278EA54F1E72C0600202D06002010
:101C00006007002055241000014904F06BBD00BF9F
:101C10005C0700200D297FB516D1684604AA02A9E9
:101C200004F0F2F920B15B21094A0A48FEF7D2FF1D
:101C3000094BBDF802201A80084BBDF80A201A8013
:101C4000074BBDF812201A8007B05DF804FB00BFF7
:101C50003C201300522013004C0000204E000020B6
:101C60005000002000210148FEF7C6BC611B100097
:101C70004FF4002230B5294B87B0C3F88020BFF362
:101C80004F8FBFF36F8F0023254D26486B6240F6C0
:101C90000933AB650123EB6504F05EFA04460028C6
:101CA00039D12B6C2B6C9B05FCD56A461E4B1868F2
:101CB000596803C2197AD3F809001170D3F80D10CE
:101CC00003AA03C25B7C69460020137004F086FD02
:101CD000044600BB6946022004F080FD0446D0B9EA
:101CE000012003A904F07AFD0446A0B90F4904F0CD
:101CF000FFFD044678B90D200D4904F00DFE0446A1
:101D000048B94FF40022054B0146C3F88021094829
:101D10001A60FEF771FC204607B030BD00E100E01C
:101D2000000700401C4813006B201300091C100022
:101D3000151C1000611B10000022064B5A6240F671
:101D400009329A650122DA654FF40022024B1A60CB
:101D5000704700BF0007004000E100E0012810B517
:101D600004460BD0022811D098B9014603F02CFF8D
:101D700018B90146052003F027FF10BD00210846D1
:101D800003F022FF0028F8D12146F3E701210020CB
:101D9000F1E70020F1E70000014B1888704700BF11
:101DA0004C000020014B1888704700BF4E000020F7
:101DB000014B1888704700BF5000002073B51546CE
:101DC0008DF807101E46012200230DF1070104467D
:101DD000FEF7EEFD034610B140B202B070BD3246D0
:101DE00029462046FEF78EFD40B2F6E72DE9F8437E
:101DF00003F1010906464846884617461C462CF062
:101E000021FF054690B12246394600F8018B2CF09F
:101E100039FF00234A4629463046FEF7C9FD0446ED
:101E200028462CF017FF60B2BDE8F8834FF0FF3072
:101E3000FAE7000070B50446ADF5667D80B9FF2372
:101E40008DF805008DF8043000209DF8043063F310
:101E500007009DF8053063F30F200DF5667D70BD1A
:101E600076232B484370012383702A4BC3642A4B8B
:101E700083646368036504F065FE064628B10023A9
:101E80008DF804008DF80530DEE705F0ABFB054664
:101E900020B18DF804608DF80500D5E7A3688BB1FB
:101EA0004FF4E37102A89847014658B14FF4E37329
:101EB00074AA02A805F0C8FB20B18DF804508DF873
:101EC0000500C1E7E36883B14FF4E37102A89847C6
:101ED000014650B14FF4E37374AA02A805F0C2FBA7
:101EE00018B100238DF80430E9E722680B4B94F811
:101EF00080101A6049B1082374AA8DF8083004F1E3
:101F000010006B4405F07CFBEBE70C20E9E700BF19
:101F100064070020ED1D1000BD1D1000BC0700204F
:101F20002DE9F04F984F04463B78ADF25C4D002B05
:101F300051D1436898474FF47A72A0FB020302FB29
:101F40000131924D924B2A46C3E9000105F0CCFBCA
:101F50002B7D63B38F4E6B7C314686F83A306B8AAB
:101F6000CF205BBA33872B7C86F83E30EB680125A7
:101F7000336486F8445004F0E2FE20B17621864AAC
:101F80008648FEF727FE304604F09AFE044610B15C
:101F90007A21814AF4E73146A4A805F055F8214694
:101FA000BDF890023D700DF25C4DBDE8F08FD5E9B3
:101FB0000065636898477A4A434202FB0131A0FBFF
:101FC0000202114480194FF00003764A41EB0501EB
:101FD0002CF022FCE7E76F4D284605F021F801467A
:101FE00018B14FF4D071704ACAE795F84420012A1D
:101FF00000F08A81654B9F68002F40F0B880002573
:102000002822002132A82CF04BFE002D00F08D80FC
:102010000E23A4AA8DF84430294611AB12A805F06E
:1020200001FB0246002840F02281DDE93267CDE95C
:102030000C67164617469DF8EE3038994FEA131C88
:1020400003F00F0B379B059102939DF8ED309DF83F
:10205000440019090491369903F00F0309919DF882
:10206000EC100B9301F00F030893CDE90622A4AB0B
:102070000D09DDF8E4E003EB0011DDF8E890DDF890
:10208000D480DDF8D0A00F910E9203920A920F999E
:102090008B4240F0EF80079B43B19DF8EC300899EC
:1020A000CDF8D0A061F303038DF8EC30069B3BB173
:1020B0009DF8EC30CDF8D48065F307138DF8EC3043
:1020C0000A9B43B1099B0B9936939DF8ED3061F360
:1020D00003038DF8ED30039B43B1029B04993793C2
:1020E0009DF8ED3061F307138DF8ED303FB1059B9E
:1020F00038939DF8EE306BF303038DF8EE300E9BB2
:102100000BB1CDF8E8903EB19DF8EE30CDF8E4E0AB
:102110006CF307138DF8EE301AB1DDE90C23CDE92D
:102120003223A3680BB132A89847204EE268336887
:1021300001333360A2B12269934211D34FF4E372A9
:10214000002011AF01970092A4AB32A9119005F0C5
:10215000B1FA054620B9E368119932A8984735606D
:102160000022094B1A70094BD3E9006521E7104E94
:10217000074B2946D3E90089304604F099FFC8B1DE
:102180008F21054AFCE600BFF0070020D807002099
:10219000F8070020640700207D201300982013001A
:1021A00018FCFFFF40420F00AE201300D4070020B0
:1021B000C007002096F9003096F800A0002BBFF66B
:1021C0001EAF17F0010508D00125B0688DF85550F5
:1021D0002CF0A8F8CDE91289149079071ED512AB1E
:1021E00003EB051B0323B6F904008BF80D302CF02C
:1021F0009DF846492CF0A2F96B1C12AADBB202EB47
:1022000003130E22CBE90089CBF808005A73404A29
:10221000C3E90089126802359A60EDB2BA0711D598
:1022200012AB03EB051B0223F0688BF80D302CF08A
:1022300079F838492CF082F9CBE900890135CBF8DF
:102240000800EDB23B077FF5DBAE1AF0200F3FF43C
:10225000D7AE12AB03EB0517042330697B732CF068
:1022600061F80135C7E90089B860EDB2C8E6F02130
:10227000294A85E6587B01380E2816D8DFE800F099
:1022800008171F28151538151515151515313D009A
:10229000997BD3F808A001F00F020892012207925F
:1022A000D3E90012CDE90C1201221033EFE601222E
:1022B0009D7BD3F8088005F00F050692F0E79A6839
:1022C00009929A7B02F00F020B9201220A92E7E731
:1022D0009A6802929A7B02F00F0204920122039202
:1022E000DEE79A68012705929A7B02F00F0BD7E789
:1022F0000122D3F808900E92D2E79A7B0126D3F8F8
:1023000008E002F00F0CCBE705204CE60000C842C5
:10231000BC07002000007A44BF2013001AB11070DF
:102320005160002070474FF0FF30704713B50B4CE1
:1023300023688BB1003818BF0120094B1A6882420C
:102340000AD018600023074901A8019305F01EF97F
:10235000012123680198984702B010BD140800209D
:102360005400002000080020034B0448196C01F4BD
:102370000051FEF741B900BF000700402D231000B7
:1023800073B515468DF807101E46012200230DF186
:1023900007010446FEF70CFB034610B140B202B041
:1023A00070BD324629462046FEF7ACFA40B2F6E749
:1023B0002DE9F84303F101090646484688461746C9
:1023C0001C462CF03FFC054690B12246394600F8E9
:1023D000018B2CF057FC00234A4629463046FEF775
:1023E000E7FA044628462CF035FC60B2BDE8F883D5
:1023F0004FF0FF30FAE7FEF757B9000038B5114C3F
:10240000114B20466360114B0425A360104B2361E0
:102410002823637003F042FB012003F0CFFC013D51
:1024200015F0FF0502D16FF0060038BD204603F01D
:102430009BFC2378832B03D03220FEF735F9EEE79F
:102440000020F2E718080020B123100081231000BB
:10245000F7231000014601482DF02CB9C51D1300CB
:102460000F20FEF7FFB80C20FEF7FCB80F2870B560
:10247000044601D00C2814D1B4F10F0018BF01207C
:102480001C26084D06FB00552846FEF7CBF83246C1
:10249000002128462CF004FC4FF48062024B43F8E4
:1024A000242070BD2C080020000700400F2806D112
:1024B000084B186C80F40040C0F3C03070470C2803
:1024C00001BF044B186C80F48050C0F3003018BF7B
:1024D000002070470007004043F20202014B43F81E
:1024E0002020704700070040800000F18040D0F8B5
:1024F000003713F03C0F02BFD0F8003743F0010360
:10250000C0F800377047800000F18040D0F80037F5
:1025100013F03C0F02BFD0F8003723F00103C0F8DE
:1025200000377047034B1A78012A84BF03221A70C0
:10253000704700BF640800200020704770B5B0B03D
:102540006A4615461E4B03F1100614461868596872
:10255000083303C4B3422246F7D104AEB02230465A
:1025600018492CF08FFB184B1B78012B25D1C62363
:10257000042206214FF4306027F036FA002303804E
:10258000042343804FF4046304462A468380851D58
:10259000134603CBB342286069601A4605F108056B
:1025A000F6D1B022314604F116002CF06BFB204628
:1025B00030B0BDE8704027F031BA30B070BD00BF18
:1025C00048211300582113006408002010B50C4660
:1025D00000F050FC431C1AD00E4A238852889342C4
:1025E00015D99B1A9BB2062B11D1000200F47F4033
:1025F000042240F0070140F6184027F0F5F9228840
:102600000280142242800022027127F007FA002083
:1026100010BD00BF640800202DE9F04186B00C46D3
:1026200000F028FC431C07463CD06388DFF8B080EC
:10263000002B2588B8F802300CBF002607269D42E3
:1026400047D9DB431D44ADB25EB9052D2ED0062D12
:1026500038D0022D40D1A388022B3FD1E388A8F8BF
:102660001E300423390201F47F411A4641F007016C
:1026700040F6164027F0B8F922888670028027F0CD
:10268000CDF9052D0ED1D8F804405CB156B998F8B3
:10269000345068462A4613492CF0F4FA68468DF8FF
:1026A0001450A047002006B0BDE8F081A288142A8B
:1026B00014D8A11D08F120002CF0E4FAA38888F8B2
:1026C0003430CEE7A388022B08D1E388A8F836304F
:1026D000C7E700250126C4E70326C2E70D26C0E7A9
:1026E00064080020840800202DE9F8430F4600F01C
:1026F000C1FB431C42D026493B884A88934240D9BB
:10270000D24313449BB2013B062B16D8DFE803F0FB
:10271000083D04150B0F12001C241E4D00260FE06F
:102720000C7F1D4DFAE791F834401C4DF6E702246A
:102730001B4DF3E71A241B4DF0E700240226254623
:10274000000200F47F41042240F61440A31D41F032
:10275000070127F049F91FFA84F8814625B122467E
:10276000294605302CF08EFA3B884846A9F80030FF
:10277000A9F8028089F8046027F050F90020BDE82C
:10278000F883002401262546DAE70224064DC5E732
:1027900064080020F32013006C0800208408002047
:1027A0009A080020D82013008208002008B58B78F2
:1027B00023B1EC21074A0848FEF70CFA074B1A78B8
:1027C000012A05D102221A700A885A8000F012FBF1
:1027D000002008BD102113003221130064080020DE
:1027E00070B5174C054626784EBB00F005F9382227
:1027F000314620462CF054FA012340F601301149AD
:102800002370E3836560FDF78FFE40F613400E49A9
:10281000FDF78AFE40F615400C49FDF785FE40F6AF
:1028200017400B49FDF780FE4FF440600949FDF762
:102830007BFEBDE870400849084800F0CFB970BD84
:1028400064080020AD271000E926100019261000AA
:10285000CD25100039251000252510003D2510003C
:102860002DE9F04106460D4600F004FB1B4F0446DF
:102870003B78022B2ED9431C2CD06B1E132B2BD84C
:102880002A46314607F108002CF0FCF9210201F438
:102890007F41042205F1080341F007014FF4416034
:1028A0003D7727F0A1F87B8800270233838012232D
:1028B00004461FFA85F803702A4631464780A0F87F
:1028C000068008302CF0DEF9204627F0A7F83846BD
:1028D000BDE8F0810120FBE70220F9E76408002051
:1028E0000020704710B50A4C94F8703094F87120AD
:1028F0009A420BD9123354F8230030B1804701209B
:1029000094F87030013384F8703010BD0020FCE77B
:10291000A008002070B5154D0E461946EB7E40F616
:102920000B600A3327F060F833780446012B0FD090
:10293000022B11D03BB900F8043BEA7E691C2CF055
:10294000A1F9EB7E6380204627F068F8002070BD77
:10295000002242802370F6E7502242804FF4C87272
:1029600082800022C280C8220281F3E7A0080020F2
:1029700008B5487828B14FF40671024A0248FEF7BC
:1029800029F908BD102113000822130008B50C4BCB
:102990001A78052A12D193F8461004220902062358
:1029A0004FF4616041F0090127F01EF80122027026
:1029B0004FF6FF728280428027F030F8002008BD79
:1029C000A008002070B50A4E054633780BB900F018
:1029D00013F865B11B2128462CF06EFF1A28044617
:1029E00005D80246294603482CF04CF9F47670BD10
:1029F000A0080020A1080020F8B5524C2578002D31
:102A000040F09F80012686F3108886F31388742295
:102A1000294620462CF044F94FF040134A482364DD
:102A20002670FFF7CFFFFDF7A1FD4FF45060474937
:102A3000FDF77AFD40F61C504549FDF775FD40F65F
:102A400001604449FDF770FD4FF460604249FDF7B5
:102A50006BFD40F603604149FDF766FD40F60A60F4
:102A60003F49FDF761FD40F611603E49FDF75CFD11
:102A70003D4940F60F60FDF757FD284609F04AFF33
:102A800009F0D8FD4FF40042384B04F138065A6083
:102A90004FF480425A604FF480325A604FF4003253
:102AA0005A604FF480125A604FF480225A604FF4FB
:102AB00000225A604FF480525A604FF4005231465F
:102AC00028465A6002F0CCF8374620B9284B1868DF
:102AD0009B88A063A3870025302084F83E502CF00B
:102AE000B1F8244B0446186020B9AF21224A23488C
:102AF000FEF770F897E8030060602046204B2181C4
:102B00001022294640F80A3B2CF0CAF81D4A1E4BF9
:102B10000821C4E908234FF4007304222385658348
:102B20000123E56184F82A50E56240F6025026F060
:102B30005BFF0123037026F071FF85F3108885F396
:102B40001388F8BDA00800200C2113005D2D100093
:102B5000192E1000ED2C100071291000252E1000E8
:102B600015291000E12810008D29100000E100E077
:102B70004B9413009C0800202A2213000822130003
:102B8000030A983A80001B004801000270B5094E04
:102B9000054633780C460BB9FFF72EFF45B11B2CC9
:102BA00006D82246294604482CF06CF886F83740AF
:102BB00070BD00BFA0080020BC08002070B5064C06
:102BC000064623780D460BB9FFF716FFA4F84060C0
:102BD000A4F8425070BD00BFA008002070B50B4C97
:102BE000064623780D460BB9FFF706FF66B15DB1C7
:102BF00094F8713003F1120244F8226004EB83026E
:102C00000133D56584F8713070BD00BFA008002085
:102C100008B500230370142002F042F9BDE8084013
:102C200040F2145002F036B970B52D4D2B78032BBD
:102C300054D104225223082140F60D502A7026F068
:102C4000D3FEB5F8403000268380B5F84230468088
:102C5000C3800D23038040F2071386720381EA7E4E
:102C60000446531C03730923691C43730E302CF074
:102C700009F8EB7E9A1CD2B2192AE27211D805210A
:102C80002244117312220E33DBB223445A705022B5
:102C90009A7090221A710122DE705A71E37A06331B
:102CA000E37295F8373004F13000033384F82C30A8
:102CB0000C4B0D491A889B78A4F82D2084F82F30EE
:102CC00095F837202BF0DEFF95F837302046043397
:102CD00084F82B30BDE8704026F0A0BE70BD00BF68
:102CE000A008002044221300BC08002038B51A4C6C
:102CF0002278052A25D01B0AFF2B84F8463020D0E5
:102D00000A88052121701902A4F844202C230422EA
:102D100040F6026041F0090126F066FE002501221E
:102D200080F82A50028526F079FE94F87120EBB2E3
:102D30009A4208D82378042B01D8FFF775FF01F0D9
:102D40008FFD002038BD04EB8303DB6D94F8460053
:102D500098470135E9E700BFA008002070B50C785E
:102D6000032C22D00D2C4B782AD0012C32D1D3B990
:102D700030230422082140F6045026F035FE044694
:102D8000174D22462868034600F1300153F8046BC2
:102D90008B4242F8046BF9D12BF05CFF00232046F4
:102DA0002B6026F03BFE002070BD02230D4D2B70E2
:102DB000FFF798FD0028F6D12C70FFF735FFF2E7FA
:102DC000002BF0D0442BEED040F28711064A074882
:102DD000FDF700FF002BE6D040F28D11044AF6E724
:102DE0009C080020A008002048221300082213009D
:102DF0001021130010B5074C2378022B08D1FFF7E0
:102E000071FD28B903232370BDE81040FFF70CBF04
:102E100010BD00BFA008002008B5FFF7EBFF0020A1
:102E200008BD000008B5074B1A78052A08D103220F
:102E30001A70FF2283F84620FFF7F6FE01F016FD18
:102E4000002008BDA008002008B5094B1A78042A04
:102E50000DD1032140F6035019700123082126F0FB
:102E6000C3FD02230370BDE8084026F0D7BD08BDAE
:102E7000A0080020044B1A78052A0CBF93F84600DE
:102E80004FF0FF30704700BFA008002010B530B1F0
:102E900001280AD00024201E18BF012010BD0820E0
:102EA000064904F0AFFA0446F5E70449002004F0AF
:102EB000A9FA04460248FEF795FDECE71809002040
:102EC0002C09002007B500238DF804108DF805208B
:102ED00001A90222FDF76CFD003818BF012003B0E4
:102EE0005DF804FB37B500238DF8071015460DF18A
:102EF000070101220446FDF75BFD034648B90122A4
:102F000029462046FDF7FEFC003818BF012003B01B
:102F100030BD0120FBE7000000B50F488BB0037FF8
:102F2000BBB1FEF7C3FDA0B10C4903A804F02EFB12
:102F300060B9039B15210093094B0A4A93F90030AD
:102F400004A82CF04BFC04A8FDF760FA0120FFF761
:102F50009DFF0BB05DF804FB2C0900201809002030
:102F6000140900208F221300F8B5C76804460D46E7
:102F700037B1284618492CF08FFC00242046F8BDB4
:102F80008668164930462CF07DFC60B9FFF77EFF5D
:102F90004CF250311248FEF761FD236803241A7881
:102FA000104B1A70EAE730460F492CF06BFC0446D0
:102FB00020B90E4928462CF06FFCDFE730460C495B
:102FC0002CF060FC044608B90A49F3E728460A4990
:102FD0002CF062FC3C46D1E7AE1D1300AB2213007F
:102FE0002C09002014090020CE1D13009B22130081
:102FF0009F221300A5221300C81D130038B53923E2
:10300000124C0546237441F61463E360104B2046CE
:103010002360104B6360104BA36004F08BFA30B157
:10302000002429460D48FEF7C9FC204638BD21463C
:10303000032004F02AFA0028F2D12146062004F0E9
:1030400003FA0028ECD1064CEBE700BF180900207A
:10305000E52E1000C52E1000A90610002C09002036
:10306000580000207047000007B5084B00221B7A6B
:1030700007490193074B1B7A0093074B1B7A2CF0EF
:10308000E1FB002003B05DF804FB00BF64090020F1
:10309000AD221300780900205009002073B50446C2
:1030A000FEF780FE0E4B0646B3F906002BF03EF904
:1030B0004FF060512BF08EF9054630462BF036F973
:1030C000014628462BF086F92AF0D6FC054ACDE9C0
:1030D0000001132120462CF081FB002002B070BDBE
:1030E00078090020B822130073B50446FEF75AFE93
:1030F0000E4B0646B3F904002BF018F94FF060515F
:103100002BF068F9054630462BF010F901462846A9
:103110002BF060F92AF0B0FC054ACDE9000113213B
:1031200020462CF05BFB002002B070BD7809002027
:10313000B822130073B50446FEF734FE0E4B064664
:10314000B3F902002BF0F2F84FF060512BF042F986
:10315000054630462BF0EAF8014628462BF03AF9AE
:103160002AF08AFC054ACDE90001132120462CF003
:1031700035FB002002B070BD78090020B822130092
:103180000C4B13B50446B3F906002BF0CFF84FF003
:1031900060512BF01FF908492BF01CF92AF06CFC48
:1031A000064ACDE90001132120462CF017FB002030
:1031B00002B010BD6E0900200000B443B822130015
:1031C0000C4B13B50446B3F904002BF0AFF84FF0E5
:1031D00060512BF0FFF808492BF0FCF82AF04CFC6A
:1031E000064ACDE90001132120462CF0F7FA002011
:1031F00002B010BD6E0900200000B443B8221300D5
:103200000C4B13B50446B3F902002BF08FF84FF0C6
:1032100060512BF0DFF808492BF0DCF82AF02CFC89
:10322000064ACDE90001132120462CF0D7FA0020F0
:1032300002B010BD6E0900200000B443B822130094
:10324000F7B50546FEF7AEFD2BF070F804461E4FAD
:10325000B7F902002BF06AF84FF060512BF0BAF882
:1032600021462BF0B7F819492BF0B4F82BF08EFA61
:103270000646B7F906002BF059F84FF060512BF0D5
:10328000A9F821462BF0A6F810492BF0A3F82BF053
:103290007DFA0190B7F904002BF048F84FF0605127
:1032A0002BF098F821462BF095F808492BF092F86E
:1032B0002BF06CFA3346009013212846044A2CF078
:1032C0008DFA002003B0F0BD7809002000002041F5
:1032D000E924130073B51F4E0446B6F902002BF023
:1032E00025F84FF060512BF075F81B492BF072F860
:1032F0001A492BF06FF82BF049FA0546B6F906008B
:103300002BF014F84FF060512BF064F812492BF0B9
:1033100061F812492BF05EF82BF038FA0190B6F9FB
:1033200004002BF003F84FF060512BF053F80A49DA
:103330002BF050F809492BF04DF82BF027FA2B46CB
:10334000009013212046064A2CF048FA002002B0D3
:1033500070BD00BF6E0900200000B4430000204192
:10336000E924130073B50446FEF722FD0E4B064612
:10337000B3F906002AF0DAFF4FF060512BF02AF87B
:10338000054630462AF0D2FF014628462BF022F8A7
:103390002AF072FB054ACDE90001132120462CF0EA
:1033A0001DFA002002B070BD64090020B82213008D
:1033B00073B50446FEF7FCFC0E4B0646B3F9040059
:1033C0002AF0B4FF4FF060512BF004F80546304668
:1033D0002AF0ACFF014628462AF0FCFF2AF04CFBFD
:1033E000054ACDE90001132120462CF0F7F9002011
:1033F00002B070BD64090020B822130073B5044602
:10340000FEF7D6FC0E4B0646B3F902002AF08EFFFB
:103410004FF060512AF0DEFF054630462AF086FF65
:10342000014628462AF0D6FF2AF026FB054ACDE9B8
:103430000001132120462CF0D1F9002002B070BD0C
:1034400064090020B8221300F7B50546FEF7B0FC6A
:103450002AF06CFF04461E4FB7F902002AF066FFFF
:103460004FF060512AF0B6FF21462AF0B3FF194908
:103470002AF0B0FF2BF08AF90646B7F906002AF0C9
:1034800055FF4FF060512AF0A5FF21462AF0A2FF18
:1034900010492AF09FFF2BF079F90190B7F9040049
:1034A0002AF044FF4FF060512AF094FF21462AF0A1
:1034B00091FF08492AF08EFF2BF068F933460090FF
:1034C00013212846044A2CF089F9002003B0F0BDEE
:1034D0006409002000002041E924130073B504466C
:1034E000FEF75AFC104B0646B3F906002AF01EFF01
:1034F0004FF060512AF06EFF0C492AF06BFF054631
:1035000030462AF013FF014628462AF063FF2AF0CE
:10351000B3FA074ACDE90001132120462CF05EF9E9
:10352000002002B070BD00BF5A0900200AE81C410B
:10353000B822130073B50446FEF72EFC104B064666
:10354000B3F904002AF0F2FE4FF060512AF042FF76
:103550000C492AF03FFF054630462AF0E7FE0146B7
:1035600028462AF037FF2AF087FA074ACDE90001FA
:10357000132120462CF032F9002002B070BD00BFAC
:103580005A0900200AE81C41B822130073B504460A
:10359000FEF702FC104B0646B3F902002AF0C6FE05
:1035A0004FF060512AF016FF0C492AF013FF054630
:1035B00030462AF0BBFE014628462AF00BFF2AF0CF
:1035C0005BFA074ACDE90001132120462CF006F9E9
:1035D000002002B070BD00BF5A0900200AE81C415B
:1035E000B822130073B50446FEF7D6FB104B06460F
:1035F000B3F906002AF09AFE4FF060512AF0EAFE75
:103600000C492AF0E7FE054630462AF08FFE0146B7
:1036100028462AF0DFFE2AF02FFA074ACDE90001FA
:10362000132120462CF0DAF8002002B070BD00BF54
:10363000500900200AE81C41B822130073B5044663
:10364000FEF7AAFB104B0646B3F904002AF06EFE03
:103650004FF060512AF0BEFE0C492AF0BBFE054631
:1036600030462AF063FE014628462AF0B3FE2AF0CF
:1036700003FA074ACDE90001132120462CF0AEF8E9
:10368000002002B070BD00BF500900200AE81C41B4
:10369000B822130073B50446FEF77EFB104B0646B6
:1036A000B3F902002AF042FE4FF060512AF092FE78
:1036B0000C492AF08FFE054630462AF037FE0146B7
:1036C00028462AF087FE2AF0D7F9074ACDE90001FB
:1036D000132120462CF082F8002002B070BD00BFFC
:1036E000500900200AE81C41B8221300F7B505462E
:1036F000FEF752FB2AF01AFE0446234FB7F90200E8
:103700002AF014FE4FF060512AF064FE21462AF0A0
:1037100061FE1E492AF05EFE1D492AF05BFE2BF079
:1037200035F80646B7F906002AF000FE4FF0605162
:103730002AF050FE21462AF04DFE14492AF04AFE96
:1037400013492AF047FE2BF021F80190B7F9040045
:103750002AF0ECFD4FF060512AF03CFE21462AF0A1
:1037600039FE0A492AF036FE09492AF033FE2BF0C9
:103770000DF83346009013212846064A2CF02EF807
:10378000002003B0F0BD00BF5A0900200AE81C4128
:103790000000C842E9241300F7B50546FEF7FCFA1D
:1037A0002AF0C4FD0446234FB7F902002AF0BEFDFB
:1037B0004FF060512AF00EFE21462AF00BFE1E4902
:1037C0002AF008FE1D492AF005FE2AF0DFFF064612
:1037D000B7F906002AF0AAFD4FF060512AF0FAFD71
:1037E00021462AF0F7FD14492AF0F4FD13492AF086
:1037F000F1FD2AF0CBFF0190B7F904002AF096FD05
:103800004FF060512AF0E6FD21462AF0E3FD0A4917
:103810002AF0E0FD09492AF0DDFD2AF0B7FF334622
:10382000009013212846064A2BF0D8FF002003B051
:10383000F0BD00BF500900200AE81C410000C8424A
:10384000E92413000A290BD8012915D902390829BE
:1038500012D8DFE801F0141618111111110A120024
:103860002239CBB2082BF2D97047084B02681A6094
:1038700042685A6002891A817047054BF6E7054B8A
:10388000F4E7054BF2E7054BF0E700BF50090020D5
:103890005A090020640900206E09002078090020E0
:1038A00038B5044618B101280CD0002038BD234C8F
:1038B0002378002B3FD0FEF751FA08B10120F5E73D
:1038C0002070F3E72021092002F09EFC202105460C
:1038D0000A2002F099FC20210544022002F094FC09
:1038E00020210544032002F08FFC20210544042000
:1038F00002F08AFC0022124BE8421A60DED10F4B24
:1039000002201C70FEF72AFA0028D7D10D4B186050
:10391000586018810C4B1860586018810B4B186068
:10392000586018810A4B186058601881094B18605C
:1039300058601881BAE71846B8E700BF8000002039
:103940004C0900206E090020500900205A0900206F
:1039500078090020640900202DE9FF41C6680D4662
:1039600026B12D4928462BF097FF32E084682B4F73
:103970004FEA0618204658F807102BF083FFD8B9F5
:103980000124FFF78DFF264E07EB0803187B3368F1
:103990008440234009D1CDE9013300930522202141
:1039A00002F0F2FB33682343336047442846BB6888
:1039B000984770B11B49D5E70136152ED8D120465E
:1039C00019492BF05FFF40B93246184928462BF0C1
:1039D00039FF002004B0BDE8F08120462BF064FFE1
:1039E000042817D9042220460F492BF03BF988B947
:1039F0000F4A201D033414F9013F43B92BF018F985
:103A0000142807D807EB001042680A49DEE79B5CE0
:103A10005B07F0D40849A5E7AE1D13008823130007
:103A20004C090020BD221300CE1D13008C1D130075
:103A3000E1981300C31D1300C81D130010B5FEF755
:103A400017F908B1002010BD2021104A092002F00A
:103A500039FF202104460D4A0A2002F033FF2021BD
:103A60000A4A0444022002F02DFF2021074A0444A0
:103A7000032002F027FF20210444044A042002F01E
:103A800021FFE042DED10248DDE700BF45381000EB
:103A90006C0000200020704707B508486946FDF714
:103AA000ADFF4FF47A7301980021B0FBF3F0009A58
:103AB000034BE2FB030103B05DF804FBB0090020F7
:103AC00040420F00034630B5054C00F12805224660
:103AD00018685968083303C2AB421446F7D130BDA9
:103AE00088090020064B10B50446986829F0C4FFE9
:103AF00002460B46204603492BF0A4FE002010BDD1
:103B000088090020D8241300064B10B50446D86954
:103B100029F0B2FF02460B46204603492BF092FEE5
:103B2000002010BD88090020DF241300084B10B5C9
:103B300008490446186A2AF04DFC29F09DFF024608
:103B40000B46204604492BF07DFE002010BD00BF2F
:103B500088090020240B1839DF241300084B10B506
:103B600008490446186A2AF0E9FC29F085FF024654
:103B70000B46204604492BF065FE002010BD00BF17
:103B80008809002000007A44DF2413000A4B10B596
:103B90000A49044698692AF01DFC4FF084412AF036
:103BA00011FB29F069FF02460B46204604492BF021
:103BB00049FE002010BD00BF880900206666E63F70
:103BC000DF241300064B10B50446986929F054FF12
:103BD00002460B46204603492BF034FE002010BD60
:103BE00088090020DF241300F0B5164E85B0044686
:103BF0001549B0692AF0EEFB4FF084412AF0E2FA51
:103C000012492AF0E7FB2AF0C1FD11490546306A46
:103C10002AF0E0FB0D492AF0DDFB2AF0B7FD002772
:103C20000C490290F06901972AF088FC2AF0AEFD59
:103C30002B46009013212046074A2BF0CFFD384633
:103C400005B0F0BD880900206666E63F000020410F
:103C5000240B183900007A44E624130030B5124CC6
:103C600089B005461149206A2AF068FC29F004FF52
:103C7000CDE90601A06829F0FFFECDE90401E06965
:103C800029F0FAFECDE90201A06909492AF0A2FB58
:103C900029F0F2FE074ACDE90001132128462BF056
:103CA0009DFD002009B030BD880900200000C842F9
:103CB00000002041F2241300FCF7F6BC13B50A4CB7
:103CC000237F73B12046FDF7F1FE50B10748FEF7A0
:103CD00027F901462046FDF7ABFE69460448FDF78B
:103CE0008DFE02B010BD00BFD0090020980000205A
:103CF000B00900202DE9F843C6680D4626B12449D5
:103D000028462BF0C9FD20E04FF00C098468DFF84D
:103D1000848009FB06F7204657F808102BF0B2FD07
:103D200030B947442846BB68984770B11A49E7E75D
:103D30000136082EEDD1204618492BF0A3FD38B9E5
:103D40003246174928462BF07DFD0020BDE8F88358
:103D500020462BF0A9FD042818D9042220460F493B
:103D60002AF080FF90B90F4A201D033414F9013F57
:103D70004BB92AF05DFF072808D80C2303FB00800D
:103D800009494268DEE79B5C5B07EFD40749B7E768
:103D9000AE1D13003C251300BD221300CE1D1300E1
:103DA0008C1D1300E1981300C31D1300C81D1300E0
:103DB00010B5A2B084220446002101A82AF070FFA9
:103DC0001A4B0E2202931A4B8DF818200593079375
:103DD000099307230F228DF8283003238DF8202024
:103DE0008DF8843014B9002022B010BD0421502079
:103DF000104AFEF793FA0028F5D101A8FEF71AF849
:103E000040EA10235BB2002BEDD121460A48FDF7B2
:103E1000D5FD01210848FDF737FE21460748FDF78B
:103E2000CDFD0648FDF7D8FD0548DDE7B93C10009B
:103E30003BAAAA3EF0090020D0090020B0090020CA
:103E400084000020034B5A6B586B824218BF586B9A
:103E5000704700BF001300400222114B10B5C3F899
:103E60008020BFF34F8FBFF36F8F0421C3F8801002
:103E7000BFF34F8FBFF36F8F0020C3F88021C3F8CB
:103E800080110849012408606FF00040064908606D
:103E900006490C7006490863064888631A6010BD1D
:103EA00000E100E0000A0020F8090020FC090020E1
:103EB00000130040F300000170B5124C94F84E302E
:103EC000052B1AD1216BFFF7BDFF0F4D0F4B2E684D
:103ED0001A6831441144091A19606FF00043226BCB
:103EE0009A420AD001220A490A702B602363094BC7
:103EF0001A660222084BC3F880210222064B1A6080
:103F000070BD00BF00130040F8090020000A002027
:103F1000FC0900200067024200E100E010B572B623
:103F2000FFF790FF104B0446D3F80011FFF78AFF0C
:103F300011F0020F0D4B0E4901D184420AD20C68D8
:103F40001A68224402241A600A4A126B0A60064A5E
:103F5000C2F880410A681C682244121A1A6008607C
:103F600062B6186810BD00BF00E100E0000A002042
:103F7000F809002000130040014638B572B6FFF77B
:103F800061FF134B0546D3F80041FFF75BFF14F0C8
:103F9000020F104A104C01D185420AD215682368DD
:103FA0002B44022523600D4B1B6B1360084BC3F899
:103FB0008051136825682B441B1A2360074B08485F
:103FC0001963012303661160064A137062B638BD97
:103FD00000E100E0F8090020000A00200013004082
:103FE00000670242FC090020074B1A7812B1002238
:103FF0001A707047054A064910680B6803440B6045
:10400000044B1B6B13607047FC090020F80900206B
:10401000000A0020001300404FF48C7200212AF0A7
:104020003FBE20B14FF48C7200212AF039BE704798
:10403000C02AF0B541D0B2F5807F40D0802A40F050
:10404000C6800A2304460360520900F1080344F8BD
:10405000043F01EB82028A4233D103680C2B3FD02C
:104060000E2B6DD00A2B26D15A4D5B4900F1A006CC
:10407000426955F8044B8768C2F30723CB5C7C4048
:104080006340140E0C5D103083EA0443D4B20C5D1F
:1040900083EA0463C2F307440C5D83EA042350F807
:1040A000044C836063400468C36063400361534011
:1040B00043618642DCD100208BE00C23C2E70E2353
:1040C000C0E78B784D781B0443EA05230D78043153
:1040D0002B4311F8015C43EA056344F8043FBAE757
:1040E0003C4C3D4900F1C005C26954F8046B876837
:1040F000C2F30723CB5C7E407340160E8E5D1830F2
:1041000083EA0643D6B28E5D83EA0663C2F30746AE
:104110008E5D83EA062350F80C6C8360734050F880
:10412000086CC360734050F8046C03617340066808
:104130004361734083615340C3618542D4D1BAE780
:10414000244D254900F1E006446A55F8042B8768A0
:10415000C4F30723CB5C7A405340220E8A5C876904
:1041600083EA0243E2B28A5C203083EA0263C4F34A
:1041700007428A5C83EA022350F8142C8360534080
:1041800050F8102CC360534050F80C2C036153407E
:10419000DAB28A5C43617A401F0ECF5D82EA076221
:1041A000C3F30727CF5DC3F30743CB5C82EA072243
:1041B00082EA034350F8042C836153400268C361D0
:1041C00053400362634043628642BDD173E76FF0A0
:1041D0001F00F0BD9C3613009C2513002DE9F04F05
:1041E00047680D683B684C685D407B688E685C4042
:1041F000BB68C9685E40FB688FB04B400168DFF860
:10420000848249100139DFF880E2DFF880C2009132
:1042100007F1300151F8100CEFB258F827700190F7
:1042200051F8200CDFF868B287EA00091F0E5EF82B
:104230002770203189EA0709C4F307275CF8277043
:1042400089EA0709C6F307475BF8277089EA070977
:104250005FFA89F0E7B258F82770029051F83C0CE9
:1042600087EA000A2F0E5EF827708AEA070AC6F36B
:1042700007275CF827708AEA070AC3F307475BF849
:1042800027704FEA146B8AEA070ACAF30720F7B2CD
:1042900058F82770039051F8380C5EF82BB047405F
:1042A00087EA0B07C3F3072B5CF82BB0784887EA43
:1042B0000B07C5F3074B50F82BB0DBB287EA0B07AF
:1042C000C7F3074058F823300490360E51F8340CE9
:1042D0005EF82660DFF8B8B14340C5F307257340A8
:1042E000C4F307445CF825605BF8244051F82C0CBB
:1042F000734063400590C3F30740069051F8280CC3
:104300001D0E0790F8B20890C3F307200990DBB2A6
:10431000C9F307400A904FEA1A600D93009B0B9077
:1043200051F8240C002B5FFA8AF4C7F3072B4FEAED
:1043300019660C90C9F30729CAF3074A4FEA1767B1
:104340005DDC5449039B019811F803C0029B0C5D8E
:10435000CB5C4340049883EA0C23085C83EA004367
:10436000485D059D83EA006011F80B306C4084EADB
:104370000324069B089DCB5C4D5D84EA03448B5D62
:10438000079E84EA0364099B7540CB5C0C9E85EA1A
:1043900003250A9B1070CB5C85EA03450B9BCB5C25
:1043A00085EA03650D9BCB5C734011F8096083EAD5
:1043B000062311F80A60C95D83EA064383EA0161B6
:1043C000030A5370030C000E9370D0700020230A70
:1043D0005371230C93712B0A53722B0C93720B0A9B
:1043E00014711572240E2D0E117353730B0C090EDC
:1043F000D471D5729373D1730FB0BDE8F08F029B67
:104400005EF8255058F8233003986B40019D58F80A
:1044100024406B405CF820501D485D40049B5EF8D2
:10442000277050F823305D405EF826305C40059BD5
:104430005C405CF82B305C40069B50F823305C40BD
:10444000089B58F823600B9B5EF823305E40079B67
:104450005E40099B5CF823305E400A9B50F8233095
:104460005E400D9B58F823307B400C9F7B405CF8EE
:1044700029707B4050F82A7000987B4001380090EA
:10448000C8E600BF9C2613009C3213009C2A130030
:104490009C2E13009C2513002DE9F04F47680C68F3
:1044A0003B684E685C407B688D685E40BB68C9684D
:1044B0005D40FB688FB04B400168DFF8888249108F
:1044C0000139DFF884E2DFF884C2009107F130019E
:1044D00051F8100CE7B258F82770019051F8200CF1
:1044E000DFF86CB287EA0009370E5EF827702031DA
:1044F00089EA0709C3F307275CF8277089EA0709E7
:10450000C5F307475BF8277089EA07095FFA89F066
:10451000DFB258F82770029051F8340C87EA000A8D
:10452000270E5EF827708AEA070AC5F307275CF8AA
:1045300027708AEA070AC6F307475BF827704FEA35
:10454000136B8AEA070ACAF30720EFB258F82770FC
:10455000039051F8380C5EF82BB0474087EA0B0700
:10456000C6F3072B5CF82BB0794887EA0B07C4F336
:10457000074B50F82BB0F6B287EA0B07C7F307409A
:1045800058F8266004902D0E51F83C0C5EF825502A
:10459000DFF8BCB14640C4F307246E40C3F30743C1
:1045A0005CF824505BF8233051F8280C6E405E40D4
:1045B000079051F82C3CF8B20890C6F307200593F9
:1045C0000990CAF30743C9F3074006930A904FEADC
:1045D0001A600B9051F8240CC9F3072B0C90C6F30A
:1045E00007400D9000983B0E00284FEA1664F5B284
:1045F0005FFA8AFAC7F307274FEA19695DDC554964
:104600000398019E11F800C00298085C7040049E57
:1046100080EA0C208E5D80EA06400E5D4C5D059DB3
:1046200080EA066611F80B006C4084EA00240698C4
:104630001670085C84EA0044C85C099B84EA006444
:104640000898CB5C0D5C0798454085EA03250A9BDA
:104650000C98CB5C85EA03450B9BCB5C85EA036534
:1046600011F80A304340C85D83EA00230D98085CC6
:1046700011F8091083EA0043002083EA0163310A3C
:104680005170310C9170360E210AD6705171210C87
:104690009171290A5172290C9172190A14711572BB
:1046A000240E2D0E13735173190C1B0ED471D57279
:1046B0009173D3730FB0BDE8F08F02985EF8244079
:1046C00058F8206003987440019E5EF823307440CF
:1046D0005CF82060049874401D4E5EF8299056F8EE
:1046E00020601B48744058F825605CF827705E40D5
:1046F000059B5E405CF82B3083465E40069B50F87D
:1047000023305E40089B58F823500B9B5EF8233003
:104710005D40079B5D40099B5CF823305D400A9B30
:1047200050F823300C985D4058F82A3083EA09038A
:1047300043400D987B405BF8207000987B40013827
:104740000090C5E6C4371300C4431300C43B1300F4
:10475000C43F1300C436130010B40C46012C11469C
:104760001A4602D110BCFFF739BD10BCFFF794BE4A
:1047700070B52E4D2E4E2F4C6E60FBF735FE24F09B
:1047800063FF2378042B3BD8DFE803F00307182FDF
:104790004B0029492948FDF711F93C212748FDF72D
:1047A0003BF9FEF741FA0120FDF79EFE3220FBF7B0
:1047B0007BFF0120FDF7A7FE022314E01F48FDF751
:1047C00075F9E8B140F2DC511C48FDF731F9FEF70C
:1047D0003BFB0020FDF788FE3220FBF765FF002041
:1047E000FDF791FE032323700AE01448FDF776F9E4
:1047F0000F20FDF73BFE0F20FDF758FE0028CCD11F
:1048000000F0B8F958B100F006FAFBF7EBFF72B60A
:1048100000210B4807F04EFF62B600F0F3F930BFFD
:10482000AAE70648FDF7DEF80523DCE700030040B1
:1048300011E2B102040A0020300A0020080A002018
:10484000280A002008B500F0CFF80120FDF74CFE43
:10485000FA20FBF729FF0120FDF755FEFFF788FF3F
:104860000522014B1A707047040A002008B5012088
:10487000FBF7DEFD0122014B1A7008BD040A00207F
:10488000144A10B5D2F8AC3023F4883343F4805383
:10489000C2F8AC30062382F8BF3002F1077202F58D
:1048A0004432D2F8AC3C012BFBD10B4A0B4C1369C0
:1048B00023F00F0343F0090313610223236001F087
:1048C0003BF80723636040F201738122E360044BED
:1048D0001A6010BD000001400005004000010040CA
:1048E0000014004070B5012686F310884FF453730E
:1048F00000251D4C0220C4F8A450C4F89C30FDF7DC
:10490000EBFD3046FDF7E8FD2846FDF7E5FDFDF738
:1049100013FA164B164A83F847504FF49F732363DC
:10492000136B002BFCD03E232363FFF7A9FFFBF79B
:10493000D5FE00F01DF9002383F3108801220D4BF2
:10494000C3F8402C72B611F033F950B10022094B74
:10495000C3F8402C62B600F055F9BDE87040FFF78F
:1049600007BF62B6EEE700BF00070040001300403B
:1049700000E800420074024208B5002024F034FE32
:10498000FEF73AF880210846FEF718F90348FEF7CB
:1049900019F8BDE80840FBF78BBC00BFC447130003
:1049A00010B50220FDF798FD0120FDF795FD0D4C97
:1049B0000020FDF791FDFBF705FE0220FBF74AFF03
:1049C000FBF78CFE2046FEF719FBFBF75DFC20464B
:1049D000FFF7EEF9FBF758FCFFF730F8BDE81040A1
:1049E000FBF752BC300A002010B5012383F3108876
:1049F0004FF0FF32324B3349C3F88020C3F8842094
:104A0000C3F88820C3F88021C3F88421C3F8882123
:104A100043F23E122C4B1A630A6B002AFCD03F2251
:104A20001A6300F005F920B12021284A284800F037
:104A3000F5F80422274B9A71012203F1007303F564
:104A40001033C3F8A02DC3F8A02F0022C3F8B02F55
:104A5000D3F8E04F012CFBD14FF08443C3F8004A58
:104A6000C3F8804A00F0FAF800F056FCFFF708FFA0
:104A700000F0C8F820462AF035FE4FF45372124B6E
:104A80004FF4AF60C3F89C2011F086F840F6B830C0
:104A900000F034FA11F086F8FFF76EFF00F0DEF850
:104AA00000F03AFC0C4800F019F800F04DF8FFF760
:104AB00077FF002383F3108883F3138810BD00BFB2
:104AC00000E100E000E8004200070040D447130086
:104AD000FC47130000130040280A0020022330B5D1
:104AE000044687B08DF81030124A134B5A6203F116
:104AF000007303F51433D3F8E051012DFBD10020EE
:104B000007F090FD4FF4C023009303F57B03FF33C0
:104B100023600A4B684643F001030293084B8DF86B
:104B200011500193074B6360013B039300F0B4FA0B
:104B300007B030BDF138020000130040CC02002065
:104B4000E85F0020C20D010007B5FFF785F947F2C5
:104B5000357300210093044A4FF0FF330348FCF7FC
:104B600009FF03B05DF804FB1D3F1000300A002070
:104B7000FFF7A2B9F8B5214C00262046FCF70AFF42
:104B80004FF0FF3005462368DFF874C06BB98EB371
:104B900047F23572B0FBF2F000EBC530013020284F
:104BA0002AD9FFF7E9F90120F8BD1A7FDAB1D968EF
:104BB00009B91A69BAB15F69B94219D31C699A690E
:104BC00001D1944214D99442A1EB07013BBF644444
:104BD00001F1FF31A21AA21AA94204D805D18242DA
:104BE00001D210461E465B68D0E710460D46F9E735
:104BF0000020D9E70220D7E71846D5E7300A002081
:104C000000CA9A3B08B5FBF729FFBDE808404FF4FE
:104C10006130FBF78BBFFBF757BF000072B6024B4A
:104C2000024A5A60FDE700BF0003004011E2B102F2
:104C300010B56E2000F00EFA041E4FF05C0018BF95
:104C4000012400F0D7F908B144F00804692000F00D
:104C5000E9F908B144F01004204610BD0020704767
:104C600070B500230446A4B068460D468DF80030A8
:104C70008DF88730FDF7CCFF092C00F2F680DFE8D5
:104C800014F00A002B0050006D008F00CF00D700F9
:104C9000DF00E600ED009DF80030012B07D1DDF8C4
:104CA00001202A60BDF80520AA80012422E0062206
:104CB0004FF401216E4829F0D5FFD8B106224FF4F8
:104CC00001216C4829F0CEFFA0B14FF401231868F0
:104CD00028609B88AB80E8E79DF80040012C0CD150
:104CE0000DF107030DF1170253F8041B934245F829
:104CF000041BF9D1204624B070BD5F4A5F4C1346B7
:104D000003CBA342286069601A4605F10805F6D175
:104D100010225949564829F0A5FF041E18BF012446
:104D2000E8E79DF80040012C0AD10DF117030DF1C1
:104D3000270253F8041B934245F8041BF9D1D9E725
:104D40004E4A4F4C134603CBA342286069601A4673
:104D500005F10805F6D110224849DBE79DF800402F
:104D6000012C0AD10DF127030DF1470253F8041B62
:104D7000934245F8041BF9D1BCE7202241493C4845
:104D800029F070FF002870D03E4A3F4C134603CBF9
:104D9000A342286069601A4605F10805F6D184E748
:104DA0009DF80040012C14D12A460DF147030DF166
:104DB000670153F8040B8B4242F8040BF9D12035FC
:104DC0000DF1870253F8041B934245F8041BF9D1F7
:104DD00090E720222C49264829F044FF002844D09F
:104DE0002A4E20223146224829F03CFF00283CD0A0
:104DF0002A46254C234603CBB342106051601C4623
:104E000002F10802F6D1214A214C2035134603CB8A
:104E1000A342286069601A4605F10805F6D144E707
:104E20009DF88740012C20D1BDF888302B8061E7A8
:104E30009DF88740012C18D19DF88A302B7059E7D6
:104E40009DF88740012C10D19DF88B30F6E79DF836
:104E50008740012C09D19DF88C30EFE79DF8874001
:104E6000012C02D19DF88D30E8E7002442E700BF15
:104E7000AC000020540A0020101008002010080088
:104E800030100800A0170800C0170800E01708003D
:104E900000180800014B1860704700BFCC000020CC
:104EA000431EB3F5FA7F3CBF014B1881704700BF2A
:104EB000CC000020A0F11B03DBB2E02B074B04D891
:104EC000A1F5A472B2F5E06F04D90022FF20DA72D6
:104ED0009A817047D872998100207047CC000020D9
:104EE000003818BF0120014B98737047CC00002098
:104EF000014BD873704700BFCC00002073B500246D
:104F000001460646636D19480DF1060298470128CF
:104F1000054611D0164ABDF80610138C23F47C53B5
:104F200043EA012313840122124BC3F84841C3F81A
:104F30003C21204602B070BD3146636D0E480DF134
:104F40000602984701280ED0094ABDF80610138CB6
:104F500023F47C5343EA01231384064BC3F84851DE
:104F6000C3F83C51E5E72220E4E700BF90180800B1
:104F70000013004000630242B018080030B500255D
:104F8000800000F18040C0F80056039D92B2C0F846
:104F90002056049D42EA034221F40141C0F84056E4
:104FA000C0F86026C0F8001630BD00235B6D1847BE
:104FB00013B50446692818BF01460DF1060208BF63
:104FC0006B210A48FFF7F1FF692C02BFBDF80630DC
:104FD000023BADF80630012817BF002012209DF8D3
:104FE0000620034B18BF1A7502B010BD1018080038
:104FF0000013004007B501460DF106020748FFF710
:10500000D4FF012817BF002015209DF80620044B6F
:1050100018BF1A7303B05DF804FB00BF3018080016
:105020000013004007B501460DF106020748FFF7DF
:10503000BCFF012817BF002017209DF80620044B55
:1050400018BF1A7403B05DF804FB00BF50180800C5
:105050000013004013B504466E2818BF01460DF139
:10506000060208BF70210A48FFF79FFF6E2C02BF9F
:10507000BDF80630023BADF80630012817BF00200E
:1050800014209DF80620034B18BF1A7102B010BD02
:105090007018080000130040F7B5037C3A4E43F047
:1050A000010386F838300123B36200234FF4F85C23
:1050B0000446364D364AAF7DAB75407CFFB200F1F9
:1050C000380142F821C0334A3349CDE90052302239
:1050D000FFF754FFA37CE27C5B0243EA424343F4C4
:1050E000803343F48073F3612368B3644FF08043EB
:1050F00061681962D87FE26842EA00623265D3F8DB
:10510000DC200A60D3F8E01062685160D3F8E41044
:10511000626891606268D3F8E810D1606268D3F881
:10512000EC301361D4E901325A61607C830003F1F1
:105130008043D3F8E01603F5C0620907F9D50123CF
:10514000AB754FF4F853C2F8E030144B15220193BD
:10515000134B114900930023FFF710FFEA88114B0E
:105160000B491A802A7A104B1A7095F89F200F4B22
:105170001A70637C383351F823201207FBD5034B98
:105180009F7503B0F0BD00BF001300400000014058
:1051900000060040100C00206F0C0A00D40C002008
:1051A0001C000140D00C0020D20C0020280D002053
:1051B00001221A4BC3F880211A600722184B1A8665
:1051C000184AD2F88830002BFBD083681649174A5A
:1051D0004B64002316481370D0F8AC2042F48032A0
:1051E000C0F8AC20134A0120C2F880304FF084424E
:1051F000C2F8003A02F51832C2F83003C2F8203380
:10520000C2F8A0320C4B02F540720B6402F5E85272
:10521000D2F88430012BFBD030BF704700E100E0B2
:1052200000150040008002420013004000010040D1
:1052300000000140000A0042A0791D9B00235B6D25
:105240001847000073B506460C4601AA002939D15B
:105250006B212C48FFF7F2FF0546782129480DF114
:105260000602FFF7EBFF012D01D0012844D12023D6
:10527000ADF804302D234FF44875ADF80630782290
:105280006B21BDF80400BDF80630761A1B1A734373
:105290000A267343521A93FBF2F306FB003028F000
:1052A000D9FB0022184B28F089FA184B002228F06D
:1052B00065FD28F011FF164BC0B20CBB18752846CF
:1052C00002B070BD7E211348FFF7B8FF0546A0214C
:1052D00010480DF10602FFF7B1FF012D01D00128A2
:1052E0000CD11523ADF8043037234FF44875ADF8D1
:1052F0000630A0227E21C4E72546C0E70025F8E756
:105300001876DCE710180800000014400000244064
:1053100000130040201808002DE9F3470024894BB2
:1053200007460121D3F8A05D01AAA36D8648ADF818
:105330000240019498474FF00C0A0122834BDFF89A
:105340001092997D99F80460C9B29C7583F865A0A4
:105350009A7583F865A0997507F11103172BF6B2BA
:1053600000F2ED80A7422ADA6E20FFF721FE044604
:1053700020B123234FF4487489F814300620002309
:105380007843724D6E30AE7DAB7528F063FB002222
:10539000704B28F013FA704B002228F0EFFC28F035
:1053A00073FE0123C0B2F6B285F86500AB7585F8CF
:1053B0006500AE750022694B1A62012271E0022F6E
:1053C00051D84FF04701664BB6B21A661964D9F846
:1053D0005880C9F858200DF1020267D0002F7DD106
:1053E00070216048FFF72AFF044620B1ADF802A003
:1053F0004FF4487403E0019B152B62D80024BDF8DC
:105400000230B34200F28F80574BD85DFFF7D0FDDA
:1054100028B14FF44874554BDA5D4D4B1A75002591
:1054200042F2FF60EB6A98474D4B1A68BDF80230B4
:10543000B3420AD84FF47A730A215A434A4BDB5DD0
:105440004B431933B3EB523F04D9002F75D13D467E
:1054500044F44C740021424A11663D495FFA88F2D7
:105460008A65002DA6D06E20FFF7A2FDF022374BF3
:1054700083F88E2028B123224FF44874A3F56D439E
:105480001A75394B0121D85DFFF7DCFE0322304B42
:1054900004431A72012203F1007303F514331A62F4
:1054A000002220461A6302B0BDE8F0877D212D4816
:1054B000FFF7C4FE044600289DD01923ADF8023042
:1054C00096E725B1BDF802301B0AADF80230BDF8F1
:1054D000023003F01F03ADF8023090E77821214835
:1054E000FFF7ACFE044670B114234FF44874ADF8D6
:1054F0000230BDF80230B34215D800217120FFF709
:10550000A1FE04438BE7019B152BF2D925B1BDF811
:1055100002301B0AADF80230BDF8023003F01F0361
:10552000ADF80230E5E76920FFF742FD10B11E2219
:10553000074B1A754FF44C7471E701258AE74FF455
:10554000447437E700530242F81808000000014095
:105550000013004000001440000024400063024299
:105560000012004070180800154813000E48130080
:10557000C30705D56FF00102104B1A6001225A6073
:10558000810707D56FF001020C4BC3F88020012280
:10559000C3F88420420705D56FF00102084B1A605A
:1055A00001225A60030707D56FF00102044BC3F8CC
:1055B00080200122C3F88420704700BF008200428F
:1055C00000830042B0FBF1F3B3F5806F10B594BFD8
:1055D00000240124B3F5806F8CBF0B230023B1F5A9
:1055E000804F35BF8903090203FB011103FB011141
:1055F00034BF0009800AB1FBF0F1064B02F0020251
:1056000003EA01211143044B41EA041141F0010175
:10561000196010BD00FFFF00000C0040114A034656
:10562000116810B509B910491160002B10680DDD23
:1056300003330E4923F00303C4188C420ED929F01A
:10564000FBFA0C2303604FF0FF3010BD06D0033B84
:10565000054923F00303C4188C42F0D303441360BC
:10566000F3E700BF2C0D0020006000200080002028
:105670004FF0FF325B4D5C4E5C4BAC1B83B5A40816
:10568000C3F880200121C3F88420C3F88820C3F820
:105690008021C3F88421C3F8882181F31088002277
:1056A00082F31388524F5348874200F298800820B3
:1056B000DFF844C1CCF80810C3F888014F4B5048BC
:1056C000C3F8242BC3F8202BC3F8002B4D4A4E4BB4
:1056D000C0F8D0709B1A9B08C0F8D420C0F8D8300E
:1056E000CCF80410002C69D04FF480723F4B47492E
:1056F000C3F880214FF4F852454BC3F8E020A3F2E1
:10570000FC5300930023224618460196FFF736FC0F
:10571000384B9F4252D93C4B3A48DA1C121AC11EF0
:1057200022F00302994288BF0022314929F0AAFAE7
:10573000FCB14FF4807236482C4BD0F8E01011F0D9
:10574000E0013FD1C3F88021C3F88020BFF34F8F21
:10575000BFF36F8F2F4B1B69012B0AD12E4A2F48A5
:10576000921B22F00302854238BF0022033029F049
:1057700097FA0020FFF752FF0026294D294C641BA1
:10578000A410B44221D10026274D284C641BA4103C
:10579000B4421FD1FFF756F8FEE79A6030BF0868A1
:1057A0000028FAD1C3F88821C3F88820BFF34F8FAF
:1057B000BFF36F8FCB68012BBAD1ACE708220E493B
:1057C0000A4BECE71A6030BFB7E755F8043B98473F
:1057D0000136D6E755F8043B98470136D8E7002C48
:1057E00099D081E7444800205804002000E100E0FF
:1057F000A49E1300FEFF150000B9004200A5004260
:105800000005004008000020580400202B0CCA00AE
:105810000006004000DC00424748002055040020FC
:105820007001100070011000700110007001100074
:10583000FEE7FEE7FEE7FEE7FEE7FEE7FEE7FEE740
:10584000FEE7FEE700207047002070470020704709
:1058500000207047002070470020704700207047EC
:1058600000207047002070470020704700207047DC
:1058700000207047002070470020704700207047CC
:1058800000207047002070470020704700207047BC
:1058900000207047002070470020704700207047AC
:1058A000002070470020704700207047002070479C
:1058B000002070470020704700207047002070478C
:1058C000002070470020704700207047002070477C
:1058D0000020704700207047002070470023F0B57B
:1058E00085B00E46174604216A469B6D984740B91D
:1058F0006C46042354F8045BEAB2B24203D12D0C87
:105900003D8005B0F0BD013B13F0FF03F2D1012053
:10591000F7E70000054A06491368A3F5C343283B8F
:105920008B4284BF034B1360704700BF0000002010
:10593000580ADC02404B4C00464B37B51D68464CBC
:1059400005F007056A1E032A21D8DFE802F00214D9
:105950001B1E4FF400432360404A236893423D4A94
:1059600036D8002313713E490A6922F00F0213430F
:105970000B6103B030BD3B4B93F8BF203A4BB3FBF8
:10598000F2F3E8E75B785A1CF8E79B78FBE7374BC4
:105990000DF10602196A03F1007303F51433D3F80D
:1059A0004831C1F30521012B0BD13148FFF796FF98
:1059B00028B94FF47A72BDF806305343CBE72D4B2C
:1059C000C9E72D48FFF78AFF0028F2D02B4BC2E72A
:1059D0002B498B4203D8012313710023C3E72949C4
:1059E0008B4201D80223F7E724498B4203D80423D2
:1059F00013710223B7E724498B4203D8072313719D
:105A00000323B0E721498B4203D8092313710523EF
:105A1000A9E71F498B4201D80B23F7E715498B42B1
:105A200006D80F23002D13710CBF072306239AE716
:105A300018498B4203D813231371072393E71649A0
:105A40008B4295BF17232F231371137194BF082323
:105A5000092388E7000100400000002040420F00B9
:105A60000005004000000140006CDC020013004013
:105A7000B01808000024F40090180800404B4C00B7
:105A800080841E00C0C62D0000127A008096980007
:105A9000001BB700002D310100366E01002337B521
:105AA000084C85688DF8073020600DF1070201234E
:105AB00090214078A8479DF8072023681A7003B00A
:105AC00030BD00BF300D00201346074A30B40446F5
:105AD000106830B145680A46AC46214630BC407873
